:020000040800F2
:100000006807002021020008E9020008E102000858
:10001000E5020008DB020008790300080000000088
:10002000000000000000000000000000890100083E
:10003000DF02000800000000CD010008ED0200080A
:100040003B0200083B0200083B0200083B0200089C
:100050003B0200083B0200083B0200083B0200088C
:100060003B0200083B0200083B0200083B0200087C
:100070003B0200083B0200083B0200083B0200086C
:100080003B0200083B0200083B0200083B0200085C
:100090003B0200083B0200083B0200083B0200084C
:1000A0003B0200083B0200083B0200083B0200083C
:1000B0003B0200083B0200083B0200083B0200082C
:1000C0003B0200083B0200083B0200083B0200081C
:1000D0003B0200083B0200083B0200083B0200080C
:1000E0003B0200083B0200083B02000800F002F857
:1000F00000F03AF80AA090E8000C82448344AAF188
:100100000107DA4501D100F02FF8AFF2090EBAE885
:100110000F0013F0010F18BFFB1A43F0010318473B
:1001200098040000B8040000103A24BF78C878C1D1
:10013000FAD8520724BF30C830C144BF04680C60ED
:10014000704700000023002400250026103A28BF35
:1001500078C1FBD8520728BF30C148BF0B60704739
:100160001FB51FBD10B510BD00F07DF81146FFF79B
:10017000F7FF00F003F900F09BF803B4FFF7F2FF7C
:1001800003BC00F0A3F80000224B19680868B0E82F
:10019000F00F80F30988BFF36F8F4FF0000080F3FA
:1001A00011884EF00D0E70470000000006480068F0
:1001B000006880F3088862B661B6BFF34F8FBFF363
:1001C0006F8F00DF00BF00BF08ED00E0EFF3098094
:1001D000BFF36F8F0F4B1A6820E9F00F106008B55E
:1001E0004FF0500080F31188BFF34F8FBFF36F8F34
:1001F00000F0DEF84FF0000080F31188BDE8084001
:1002000019680868B0E8F00F80F30988BFF36F8FB2
:10021000704700BF00000020EFF30580704700002A
:100220000948804709480047FEE7FEE7FEE7FEE78A
:10023000FEE7FEE7FEE7FEE7FEE7FEE704480549C6
:10024000054A064B7047000021030008ED00000836
:100250006801002068070020680300206803002070
:10026000704770477047754600F02CF8AE460500A1
:100270006946534620F00700854618B020B5FFF7C1
:10028000DDFFBDE820404FF000064FF000074FF0C3
:1002900000084FF0000B21F00701AC46ACE8C009A4
:1002A000ACE8C009ACE8C009ACE8C0098D467047AD
:1002B00010B50446AFF300802046BDE81040FFF7BC
:1002C0005CBF000000487047080100200149182069
:1002D000ABBEFEE726000200704700BFFEE7704796
:1002E00000BFFEE700BFFEE77047000010B500BF8B
:1002F000502080F31188BFF34F8FBFF36F8F00BF83
:1003000000F092F818B14FF080500449086000BF27
:10031000002080F3118800BF10BD000004ED00E054
:100320001148006840F001000F4908600846406825
:100330000E4908400C494860084600680C490840CE
:10034000094908600846006820F4802008600846D3
:10035000406820F4FE0048604FF41F008860C80326
:100360000449086070470000001002400000FFF8D8
:10037000FFFFF6FE08ED00E000BFFEE700BFFEE76E
:1003800009480068006808B9012000E0002020B199
:100390004FF0FF300549086005E003480068C06879
:1003A0000068024908607047040000203000002007
:1003B0001848006818B101201749086028E000209B
:1003C000154908601548016800E0491E01EB8100ED
:1003D000134A52F8200008B9012000E0002000284C
:1003E000F3D101EB81020E4B03EB820042685268AD
:1003F000426000F108024368934202D142685268A9
:1004000042604268D268074B1A600448016000BF2E
:10041000704700003C00002024000020180000204D
:1004200040000020000000202DE9F041002757483F
:10043000006800287DD156480068451C5448056076
:100440008DB95448D0F8008053480068514908607D
:100450005148C0F8008051480068401C4F4908606E
:10046000FFF78EFF00BF4E480068854275D300BF7E
:1004700048480068006808B9012000E0002020B169
:100480004FF0FF304649086066E042480068C068A7
:10049000C4686668B54202D2414806605CE06069A3
:1004A000D4E902128A60D4E902214A60211D42681F
:1004B0008A4201D1E1684160002262610168491EFF
:1004C0000160A06A98B1A06AD4E907128A60D4E9F1
:1004D00007214A6004F1180142688A4201D1216A69
:1004E00041600022A2620168491E016000BF2D49DF
:1004F000E06A0968884202D92A49E06A0860E16A2C
:1005000001EB8101284A02EB81014868A060826802
:10051000E260211D826851608160E16A01EB810126
:10052000214A02EB81026261E16A01EB81011E4A0C
:1005300000E022E052F82110491CE26A02EB82023C
:10054000194B43F822101949E06A0968C96A8842C0
:100550008ED901278CE700E000BF14480068C06A0C
:1005600000EB8000104951F82000012800D9012734
:100570000F48006800B1012704E00E480068401CE5
:100580000C4908603846BDE8F08100003C000020BE
:100590001400002004000020080000202800002093
:1005A0003000002018000020400000200000002043
:1005B0002400002020000020D805000800000020B2
:1005C0004000000028010008180600084000002034
:1005D000280700004401000800000000000000009F
:1005E000000000000000000000000000000000000B
:1005F00000000000000000000000000000000000FB
:1006000000000000000000000000000000000000EA
:080610000400000000000000DE
:04000005080000ED02
:00000001FF
